:100000000000012075030000A1020000A102000011
:10001000A1020000A1020000A1020000A102000054
:10002000A1020000A1020000A1020000A102000044
:10003000A1020000A1020000A1020000A102000034
:10004000A1020000A1020000A1020000A102000024
:1002980062B6704772B67047684600F001F8FEE72C
:1002A80070B5044600F078FC0546224806F046FA88
:1002B8000F2D9DBF204B214853F82510A5F11001A3
:1002C80088BF1F4806F03AFA22681E481E4906F001
:1002D80035FA62681D491B4806F030FA1C4806F0DA
:1002E8002DFAA26817481B4906F028FAE2681A494D
:1002F800144806F023FA164806F020FA2269114835
:10030800164906F01BFA626915490E4806F016FAF6
:100318000F4806F013FAA2690A48124906F00EFAC5
:10032800E2690848104906F009FA0948BDE8704032
:1003380006F004BAE8100100A81001000036010018
:10034800001101000C110100181101001C1101001D
:10035800182E0100201101002411010028110100AC
:100368002C110100301101003411010010B572B6D2
:1003780009480A4A0A49121A00F086FA09480A493D
:100388000A1A002100F012FA084A094B1A60BDE85F
:10039800104000F03DBE00BF00000020980E002075
:1003A800A0500100980E0020C43F002000F000205B
:1003B800980E00200023CA5CC2540133002AFAD1E7
:1003C800704700BF002312F0010F10B404D00C785E
:1003D800013A047001237CB172B1CC5C03F1010CC9
:1003E800C454013A44B111F80C400CF1010300F86F
:1003F8000C40013A002CEFD110BC704790F9003046
:1004080010B463B1024612F9014F002CFBD100234E
:10041800CC5CD4540133002CFAD110BC704702468E
:10042800F5E700BF70B41346002A32D090F90020D7
:10043800002A30D0024612F9014F002CFBD10C786B
:1004480003F1FF3C0CF00106147014B34FF0010CDB
:100458009C4502EB0C051AD04EB111F80C4002F87D
:100468000C40B4B14FF0020C01359C450FD011F887
:100478000C600CF10104013502F80C60013504F13F
:10048800010C36B10E5D16551EB19C45EFD1002307
:100498002B7070BC70470246D1E700BF10B4002330
:1004A800C25CCC5C0133141BE4B224B9002AF7D136
:1004B800104610BC704760B2FBE700BF70B413462B
:1004C800AAB104780A78A21AD2B2002A30D174B13B
:1004D8005C1E14F0010F944627D045784A782346CD
:1004E800AA1AD2B2002A23D14FF0010CEDB900208C
:1004F80070BC704701EB0C0500EB0C046A7864785B
:100508000CF1010CA21AD2B200EB0C0601EB0C059F
:1005180072B9002CEBD074786A78013BA21AD2B277
:1005280032B90CF1010C002CE1D0013BE2D1DEE73D
:1005380050B2DDE7037849B25AB28A4208D033B1E3
:1005480010F8013F4FFA83FC8C45F8D17047002022
:10055800704700BF90F9002003462AB1024612F9FD
:10056800010F0028FBD1D21A981890F900C049B29F
:100578008C4502F0010215D00138834210D832B1FF
:1005880090F900208A420CD00138834208D890F9AB
:1005980000208A4205D010F901CD8C45F4D170476E
:1005A80000207047704700BF90F9003033B1034610
:1005B80013F9012F002AFBD1181A70471846704703
:1005C800D9B190F90020C2B14B1E13F0010F0246B9
:1005D8000CD1013243B192F90010013B21B112F95B
:1005E800011F013B0029F4D1101A7047024612F985
:1005F800011F013B0029ECD1F6E70020704700BF3E
:1006080070B403780246C3B10E78B6B176B2002052
:100618005BB29E4218BF0C4602D109E0634507D081
:10062800657801344FFA85FC002DF7D170BC70470E
:100638000130135C002BEBD1F8E70020F6E700BF90
:10064800F0B40378ABB10E78054677B2284666B1A8
:100658005BB29F420ED00A4601E063450AD0547847
:1006680001324FFA84FC002CF7D115F8013F002B1A
:10067800ECD10020F0BC70472DE9F004002844D0EC
:10068800274E0478002C45D00D78002D45D0002742
:100698004FFA85FA64B2A24518BF0A4602D124E08F
:1006A800A44522D0537801324FFA83FC002BF7D1AE
:1006B800C0190378002B2DD007464FFA85FA65B18B
:1006C8005BB29A4516D00A4601E09C4512D0547890
:1006D80001324FFA84FC002CF7D117F8013F002BA8
:1006E800EDD13360BDE8F00470470137C45D002CDC
:1006F800D0D1DDE73B46002FF3D097F90020002A40
:10070800EFD0002103F8011BEBE7054E3068002805
:10071800E8D0B6E700203060E4E72F46C8E700BF1E
:100728009C0E002003682DE9F004CBB11D78ADB113
:100738000F781E464FFA87FA67B16DB2AA4513D0F3
:100748000A4601E0AC450FD0547801324FFA84FCD8
:10075800002CF7D116F8015F002DEDD100220260C0
:100768001846BDE8F00470473246002EF7D0002145
:1007780002F8011B0260F3E7034608B91846704700
:10078800017879B140780028F8D01A4603E0D0788B
:1007980002320028F2D05170917810700029F6D1F9
:1007A800184670470B461846704700BF10F0030FF5
:1007B80030B404462AD101F0FF0343EA032C43EA8C
:1007C8000C25032A43EA052520D9A2F1040C0423A9
:1007D800BCF1030F0560CCF3800410D92CB1A2F151
:1007E80008040823032C456009D903F1040CC550FB
:1007F8000CF10403D41A032C40F80C50F5D8043A31
:1008080022F00304231DC41802F00302AAB1531EE8
:1008180003F001050123C9B29A4221700DD01DB120
:1008280002239A42617008D003F1010CE1540CF1E3
:1008380001039A4204F80C10F6D130BC704700BF8F
:10084800034610B41046E2B11C7802F1FF3C0122C5
:1008580082420C700CEA020413D034B193F801C040
:100868000222824281F801C00BD09C5C02F1010C8B
:100878008C5413F80C400CF10102824201F80C4030
:10088800F3D1084610BC704741EA000313F0030F88
:1008980030B404460D4628D1032A26D90C68A2F1A3
:1008A800040C0423BCF1030F0460CCF3800414D9B6
:1008B80034B14D68A2F108040823032C45600CD913
:1008C800CC5803F1040CC4500CF1040351F80C503B
:1008D800D41A032C40F80C50F2D8043A22F003053D
:1008E8002B1DCD1802F00302C418CAB12978531E73
:1008F800217003F0010101239A4211D021B16978D6
:1009080002239A4261700BD015F803C0591C04F8F1
:1009180003C015F801C04B1C9A4204F801C0F3D17A
:1009280030BC70478842F0B41FD8E2B10C7801237C
:1009380002F1FF3C934204700CEA030413D034B173
:1009480091F801C00223934280F801C00BD0CC5C1F
:1009580003F1010CC45411F80C400CF1010393424B
:1009680000F80C40F3D1F0BC7047002AFBD089187E
:1009780011F8013C8418551E04F8013C05F00106E5
:100988004FF0FF33002DEED03EB111F802CC022A11
:100998006FF0010304F802CCE5D0CD1815F8017CFE
:1009A80003F1FF3CE61806F8017C01EB0C0515F88D
:1009B800017C0CF1FF3304EB0C069D1806F8017C52
:1009C800002DEAD1CFE700BFF0B403469446002AD1
:1009D80030D005780A78AD1A29D10CF1FF3616F017
:1009E800010F2A4618D0447848780122201AB446C4
:1009F8001ED19C18881801329F188E180132BCF13C
:100A0800010C0CF1FF3C12D064784078201A0FD109
:100A18007C787078201A0BD19C18881801329F189E
:100A28008E180132BCF1010C0CF1FF3CECD12846C8
:100A3800F0BC70471046FBE71346CAB102788A42F9
:100A480019D05A1E12F0010F0DD010F801CF13461D
:100A58008C4508D1704790F800C08C4509D010F833
:100A6800012F8A4206D00130013B03F1FF33F2D156
:100A780070477047704770472DE9F00E91F90030C4
:100A880083B081463BB10B4613F9012F002AFBD1F5
:100A9800B3EB010A04D1484603B0BDE8F00E704735
:100AA80099F90030002B40D04B4613F9010F00286C
:100AB800FBD1C9EB030BD34535DB4846BAF1000F30
:100AC800EAD00B784FF0000C019319F80C30019A1A
:100AD8009A421FD10AF1FF34002314F0010F524645
:100AE8000AD046784D780123AE42224604D011E060
:100AF8007C787578AC420DD1C518CC180133C7186D
:100B0800CE180133013A02F1FF32C5D06D7864780E
:100B1800A542EDD00CF1010CCCEB0B00824502DCB8
:100B280009EB0C00D1E70020B6E79B46C3E700BFFE
:100B380012F0010FC9B205D090F800C0013A8C45F7
:100B48000DD00130531E4AB190F800C05A1E8C4592
:100B580005D010F8013F8B42F3D17047104670471B
:100B680010B5044600B910BD90F9003083B110F9F2
:100B7800011F0029FBD1001B013006F001F80146D6
:100B880029B10023E25CCA540133002AFAD110BD0E
:100B98000120F2E7002070474EF60053CEF2000322
:100BA8005868C0B2704700BF4EF69053CEF20003AB
:100BB8009860D9601A6170474EF69053002814BFA8
:100BC80003200020CEF20003586070474EF6905381
:100BD80040F23F00CEF200030021C0F200300322B1
:100BE8009960D96018615A60704700BF08B500F075
:100BF800A9F900F067F800F0E7F843461A6841F2EF
:100C08005E11D16000F0A0F9404603684FF0204221
:100C18001A61002008BD00BF012A2DE9F0441546DD
:100C28001C4631D000211022586809F079FF022DA6
:100C38008246D8BF1D4F10DC1D4E00251D48216877
:100C480005F07CFD2B4650461B4D39463246A847D9
:100C5800051E21DD2846BDE8F08400211022A06889
:100C680009F05EFF032D0746E6D000211022E06858
:100C780009F056FF042D064616D0206900211022DF
:100C880009F0B4FF0546D9E719680C48002505F0B6
:100C980055FD2846BDE8F084216809482A4605F034
:100CA8004DFD2846BDE8F084043DC7E7004000201C
:100CB80000800000CC110100B50C0020A811010033
:100CC800F011010030B44EF210034FF6FE74CEF26C
:100CD8000003C0F2FF0406495C60002000240025E0
:100CE80001229860C1E900451A6030BC704700BF16
:100CF800A00E00204EF21000CEF200008268034BD6
:100D0800002000219A60C3E900017047A00E00206E
:100D1800012000F00DB900BF10B50446012000F015
:100D280007F94DF6836CC4F21B3CACFB00218B0C1D
:100D380004FB03F44EF21001CEF200018A689442DB
:100D48000AD902F18073981E041B88688242FCD875
:100D58008B68A342F9D810BD141B8868A04202D939
:100D68008B689A42F9D210BD2DE9D04C154B4EF242
:100D78001004CEF200049F68A2680446BA4284BFF9
:100D880007F18077023FBE1AD3E9000110EB060A8B
:100D980041F1000B5F465646C3E900679A6001209F
:100DA80000F0C6F844F6D351C1F26201A1FB00B2CB
:100DB80000235046394692090FF0BEFC001BBDE8DF
:100DC800D08C00BFA00E002048F20003C4F2030339
:100DD80010B4D3F89400194620F00402C3F8942004
:100DE800D1F8504148F2000314F0010FC4F2030394
:100DF800F6D0D3F89400194620F00102C3F89420E5
:100E0800D1F8504148F2000314F0020FC4F2030372
:100E1800F6D0D3F89840444A24F48051C3F8981087
:100E2800D3F898104BF68070C1F3422CC0F67600C8
:100E3800BCF1070F1060D3F890003BD14BF6807CD3
:100E48000124C0F6760CC0F30240BCFBF4F307287B
:100E580053603DD14BF6807C0120C0F6760CBCFB7C
:100E6800F0F3C1F38200072893603FD14BF6807CF2
:100E78000120C0F6760CBCFBF0F3C1F34210072842
:100E8800D36041D14BF6807C0120C0F6760CC1F3CB
:100E98004231BCFBF0F30729136143D0234850F8D3
:100EA80021104BF6807CC0F6760CBCFBF1F3536145
:100EB80010BC70471D4BC0F3024053F82C404BF652
:100EC800807CC0F6760CBCFBF4F307285360C1D0D5
:100ED800164B4BF6807C53F82000C0F6760CBCFB12
:100EE800F0F3C1F3820007289360BFD00F4B4BF695
:100EF800807C53F82000C0F6760CBCFBF0F3C1F3FD
:100F080042100728D360BDD0084B4BF6807C53F8BD
:100F18002000C0F6760CC1F34231BCFBF0F3072980
:100F28001361BBD10121BCE7B00E002054120100AF
:100F3800052803D8024B53F820007047002070475B
:100F4800B00E0020704700BF48F20003C4F203034C
:100F5800012098619A6C42F080019964986C20F0A5
:100F680080029A64FFF732BE704700BF704700BF27
:100F7800704700BF704700BF704700BF704700BF91
:100F8800704700BF704700BF704700BF08B50248F0
:100F980005F0BCFBFEE700BFB01201004046036845
:100FA80010B59C69044805F0B1FB2046034908F0D8
:100FB8006FFF002010BD00BFDC120100182E0100D9
:100FC80008B50348034905F0B9FB002008BD00BF78
:100FD800E41201007012010070B590B040220B4875
:100FE800694604F091FB444600286D462668D8BF40
:100FF8004FF4E13004DD684600210A2209F090FD33
:10100800A060A3680020336010B070BDEC1201002E
:1010180010B5334C2068A0F54058A8F120080021ED
:1010280020224046FFF7C2FB4146A8F11C020A6095
:1010380008681C220021FFF7B9FB41462068294BAC
:101048004C68294AD3F800C044F001044C60136886
:101058002649C0EB0C0008604BB1144602E054F876
:10106800043F23B198470028F9D0FFF78FFF40F2DB
:1010780000004FF48011CAF2F03006F0C3F806F011
:10108800A7FA1B4843461C6804F0B2FB09F0EAFCC7
:10109800606007F0A5FF06F037FB05F0A7FB00F03E
:1010A80033F8144804F0A4FB28B10021102209F0F9
:1010B80037FD11490860114804F09AFB014618B140
:1010C8000F48802200F050FC0E4805F01FFB4246F6
:1010D800106800F015FB07F087FB07F085FBFAE7BF
:1010E800980E0020980E002000000020C80E002056
:1010F800F812010000130100540000200C13010035
:101108003028002018130100704700BF00207047E6
:1011180070B5A2B0044680222C4902A8FFF7B4FBA0
:10112800266BE56AE16BA26B636B29480096019513
:10113800256C05F003FBA16A626A236A254805F05D
:10114800FDFA2669E169A26963692348009605F0FA
:10115800F5FA2668E168A26863682048009605F0F9
:10116800EDFA15F0804F14BF5A227A2215F0005F6D
:1011780014BF4323632305F0704C15F0805F14BF40
:10118800562676261648BCF1000FB4BF4E216E21B4
:10119800009605F0D3FA206C22AA00F01F01114C2A
:1011A80002EB8103104A10F0800F14BF214611464C
:1011B80010F0400F18BF22460C4C53F8803C0C48E6
:1011C800009405F0BBFA22B070BD00BF20130100E7
:1011D800A0130100E81301000C1401003C140100E5
:1011E8006C140100801401007C14010088260100A1
:1011F8008414010008B5034809F01AFE0020024BC8
:10120800984708BDA4140100950C002010B50446A9
:10121800044805F093FA2046FFF77AFFBDE810402E
:10122800E8E700BFB814010010B50446044805F00B
:1012380085FA2046FFF76CFFBDE81040DAE700BFEB
:10124800CC14010010B50446044805F077FA20468E
:10125800FFF75EFFBDE81040CCE700BFE4140100D3
:1012680010B50446044805F069FA2046FFF750FF18
:10127800BDE81040BEE700BFF014010010B50446F9
:10128800044805F05BFA2046FFF742FFBDE810402E
:10129800B0E700BFFC14010010B50446044805F08F
:1012A8004DFA2046FFF734FFBDE81040A2E700BF23
:1012B8000C15010010B50446044805F03FFA204615
:1012C800FFF726FFBDE8104094E700BF2015010096
:1012D8004FF0FF30704700BF014B1868704700BFE0
:1012E800CC0E0020104B5A689AB1D8B1136B9A42B1
:1012F8000FD0012110F0010F0DD0884201F1010C2F
:101308000ED01B6B0CF101019A4202D01B6B9A4262
:10131800F3D1002070471B6B9A42FAD00221ECE708
:101328001846704710467047CC0E00200B4A536889
:1013380083B11268934209D0002001E0934206D09D
:101348001B6B0130002BF9D1002070470020002AC8
:10135800FAD070474FF0FF30704700BFCC0E002026
:1013680010B5054C23682BB11846D96A88472368FD
:101378000122DA6110BD00BFCC0E002008B5064B73
:1013880084461B680A4623B1184661465B6A98473B
:1013980008BD4FF0FF3008BDCC0E002008B5054B46
:1013A8001B681BB11846996A884708BD4FF0FF3083
:1013B80008BD00BFCC0E00200349044B0868002874
:1013C80008BF1846704700BFCC0E00204016010029
:1013D80070B5084D06466C6844B121463046FFF7A3
:1013E8005DF828B1246B6B689C42F6D1002070BD73
:1013F800204670BDCC0E002070B5154C2368002B1C
:1014080021D004F05BF9A168054611B1E068854276
:1014180006D0104804F0ECF9E5600146A06098B1E8
:1014280025680B4E284600E0B168FFF737F850B141
:101438002268106B85422060F6D106482946BDE82F
:10144800704004F0F5BB70BD01490D68F5E700BFB9
:10145800CC0E00204816010038B50546144804F0A3
:10146800C7F918B11349FFF719F890B1124C23685E
:101478007BB17DB91B6B1148236004F0B9F958B1F1
:101488000D4A1168FFF70AF830B9216820698842C7
:101498000AD038BD2361EDE72168084804F0C8FB8D
:1014A800216820698842F4D1054B01221A6038BDB1
:1014B800501601005C160100CC0E002048160100F1
:1014C8003C0F002038B50F4D0446696851B10A46F3
:1014D80000E01A46136B9942FBD114630020216384
:1014E800E06138BD08486C602C6004F081F918B1DF
:1014F8002968FEF7D3FF18B10348296804F098FB60
:101508006968EBE7CC0E00204816010030B587B0BB
:1015180001AC0A460546054920460AF0DDFB284687
:10152800214604F085FB07B030BD00BF60160100FE
:1015380030B50C4683B0002855D001AD102229469D
:1015480009F0EEFA019B207093F90020002A48D197
:10155800621C002B4AD018462946102209F0E0FAEE
:10156800019B607093F90000002838D1A21C002B61
:101578003FD018461022294609F0D2FA019BA070E4
:1015880093F90020002A28D1E21C002B34D01846F9
:101598002946102209F0C4FA019BE07093F9000073
:1015A800C8B9221D002B2AD018461022294609F056
:1015B800B7FA019B207193F9002052B9621D002BE4
:1015C80020D018462946102209F0AAFA607103B003
:1015D80030BD0133F2E70133E3E70133D4E70133E8
:1015E800C4E70133B4E70A4602F8010B002313707D
:1015F800A21C00211170E21C00231370221D00217F
:101608001170621D00231370E1E700BF10B50C468E
:1016180004F0EEF82146FFF78BFF237813F0010F53
:1016280001D0002010BD607894F802C0E27840EA4A
:101638000C010B432179134362790B431A430CBF06
:101648000020012010BD00BF30B50246084B0948F4
:1016580089B0002A18BF03460D46684619460AF0A5
:101668003BFB684629466C46FFF7D0FF09B030BD02
:10167800641601006C1601002DE9F0441E4E82B07C
:1016880033688246002B31D0746800256F4604E029
:10169800246B7068844210D0013569462846FFF7EC
:1016A800D3FF0028F4D004F1100006226946FFF7A2
:1016B800EBF8246B70688442EED10F490C6823461E
:1016C80018461A6A5146904700284FF0000009DA78
:1016D800FFF7C2FE33689C42F2D14FF0FF3002B0F0
:1016E800BDE8F08433680221D961F8E7034805F0C2
:1016F8000DF84FF0FF30F2E7CC0E0020781601000D
:101708002DE9F04E574F002382B03B607B600446C2
:10171800402006F00BFD07F007F9204608F056FABE
:101728000028C0F28F807C68002C00F092804E4820
:1017380004F05EF88146412006F0F8FC21464B484B
:1017480004F0FCFF00256E46DFF818B14946204634
:10175800B9F1000F02D0FEF7A1FE00B32846694692
:10176800FFF772FF684642490622FFF72DF9013557
:1017780028BB246B79683F488C4232D004F0C6FFFE
:1017880021463A4804F0DAFFDFF8D8B04946204647
:10179800B9F1000FE2D0FEF781FE0028DED136480D
:1017A8003C6004F0B3FF28466946FFF74DFF6846E2
:1017B8002F490622FFF708F901350028D9D004F18E
:1017C800100A2B4906225046FFF7FEF8E8B9694689
:1017D80006225046FFF758F8246B796825488C4252
:1017E800CCD1DBF80010002928D0244804F000F8F8
:1017F800F8B1DBF80010FEF751FED0B90A2005F069
:1018080061F8284602B0BDE8F08E062269465046C7
:10181800FFF7DAF80028DAD02146194804F08EFFDD
:101828005146184804F08AFF1748694604F086FFB5
:10183800CDE73968114804F0FBF9DFE70F4804F0F9
:10184800F7F9DBE72046FFF743FD7C68002C7FF4BF
:101858006EAF0E4804F05AFF6FF03F0006F066FCCA
:101868002546CEE7CC0E00208C160100943E0100E0
:1018780038160100981601009C1601004816010050
:10188800A8160100D4160100F4160100781601000C
:10189800014B02221A607047E00E0020704700BF1B
:1018A800014B5860704700BFE00E0020002910B4BB
:1018B8002DDD01234A1E8B4202EA0304028812D05E
:1018C8002CB1022330F803C08B4262440BD003F1E1
:1018D800010C30F8133030F81C40D2180CF1010319
:1018E80012198B42F3D191B201EB124C1FFA8CF30F
:1018F80003EB1C404FF6FE71421CC0F2000102EAE5
:101908000100D0F1010038BF002010BC7047012051
:10191800FBE700BF002910B423DD01234A1E8B42D8
:1019280002EA0304028812D02CB1022330F803C063
:101938008B4262440BD003F1010C30F8133030F8BD
:101948001C40D2180CF1010312198B42F3D11FFA73
:1019580082FC0CEB124290B200EB124188B210BC30
:1019680070470020FBE700BF10B491F90030222B2C
:101978002ED0013A002A12DD0B7883B1222B0ED02B
:1019880002F1FF3C1CF0010F1BD0BCF1000200F873
:10199800013B04DD4B7813B10131222B11D1002119
:1019A800017010BC70474B78611C002BF7D0222BBC
:1019B800F5D000F8013B6378013A002BEFD0222BD9
:1019C800EDD0013A4C1C002A00F8013BEBDCE6E7BD
:1019D8000131013ACDE700BF08B520B101783039AF
:1019E800CBB2092B02D94FF60F7008BD0A2200218D
:1019F80009F096F882B2130243EA122080B208BDB9
:101A080010B503F0F5FEBDE81040E5E7094A108877
:101A18004FF6FF72010A41EA00239BB2934207D0B6
:101A28001805030D40F6FF7C634501D0122070476E
:101A38000E20704730000020020A42EA002C1FFAEC
:101A48008CF24FF6FF739A4209D040F6FF7082423B
:101A580005D01305084604491A0D0AF03DB9084691
:101A68000249FEF7A7BC00BF241701001C1701009C
:101A780030B5020642EA106500F47F4345EA0324C4
:101A880000F47F0044EA102283B0C2F3072502F075
:101A9800FF04C2F307430846120E03490095019458
:101AA8000AF01AF903B030BD281701000422FEF726
:101AB800EBBE00BF70B51B4E4FF6FF733488164659
:101AC800220A42EA0425ADB29D4204461BD00622F2
:101AD800FEF7DAFE2D050622A01D1349FEF7D4FEF7
:101AE8002A0D15F5801F16D0B6B22D0F330A45EA18
:101AF800022543EA06264FF0810C2682E581A4F8E8
:101B08000CC0122070BD0622FEF7BEFEA01D0649BD
:101B18000622FEF7B9FEB0B2010A41EA0026A68104
:101B28000E2070BD30000020E80E0020FFF726BC14
:101B38002DE9F04E934D0D2984B004462861696162
:101B480033DD914E8389728830884FEA122C070A58
:101B58001E0A47EA00204CEA022C46EA032640F611
:101B6800FF724FF6FF7380B21FFA8CFCB6B240F2D8
:101B7800E9579C4508BF9446984214BF034613464C
:101B8800BE4215DDB6F5014F4AD00E3904F10E07F5
:101B98001B051B0D40F6FF70834217D0824204BF1D
:101BA8004FEA0C52120D934210D004B0BDE8F08EEB
:101BB800A08A1B05060A46EA00271B0D40F6FF709F
:101BC80016398342BEB204F11607E7D140F6060C77
:101BD80066453AD048F23502964211D0B6F5006F04
:101BE800E3D11B29E1D97888020A42EA002C1FFABE
:101BF8008CF28A4240F3D680644804F09FFDD4E713
:101C08001B2940F3B980F888020A42EA002C0FFA2F
:101C18008CFEBEF1040F7DD05D4804F077FDC4E76B
:101C28001129C2DD0005000D9042BED0E789208A47
:101C38003E0A46EA0722060A46EA00271205BEB20D
:101C4800120D123904F11207A2E71B2940F3948000
:101C58003B881A0A42EA032001B20129A5D17888F3
:101C6800030A43EA00210FFA81FCBCF5006F9CD1FE
:101C780097F804A0BAF1060F97D17A79042A94D17B
:101C8800A969DFF8009100298FD007F1180103AB8B
:101C98000191184601990093FEF7F6FDD9F818004E
:101CA800039A07F1080B9042009B7FF47EAFF888F7
:101CB800020A42EA002E1FFA8EF2012A00F0D880AA
:101CC800022A7FF472AFE9692E4C00293FF46DAF08
:101CD800206A00283FF469AF042218460BF1060178
:101CE800FEF7D2FD626A039B9A427FF45EAF5946C3
:101CF8000622206AFEF7C8FD216A0622A06AFEF7BE
:101D0800C3FDE16AA06AFFF739FB00212162E161A6
:101D1800E1624AE73888020A42EA00210BB2012B45
:101D28007FF47AAF7B88190A41EA032C0FFA8CFEFC
:101D3800BEF5006F7FF470AFB88840F2064290425B
:101D48007FF46AAF134807F11801FFF7AFFE2B6B5A
:101D580007F1080423B907F10E010F48FFF7A6FEA3
:101D6800214606220D48FEF78FFD00206C680146CB
:101D780002460346A04718E709481C2204F0DEFC87
:101D880013E700BFE00E00203000002060170100BC
:101D980048170100F80E0020100F0020140F002033
:101DA800341701003B7803F0F00140297FF4FDAEC1
:101DB80003F00F03052B3FF7F8AE38460A21FFF76B
:101DC80075FD00283CD0042203A807F11001FEF796
:101DD8005BFDAB69039A6BB1B3EB020E18BF4FF012
:101DE800010EB2F1FF3F0CBF00200EF001000028E9
:101DF8007FF4DBAEF888020A42EA002399048A0CD1
:101E0800002A7FF4D2AE7B7A012B1DD0112B7FF4F0
:101E1800CCAE3B8BB7F816E0BA8A190A41EA03241C
:101E2800100A4FEA1E2C4CEA0E2140EA0222A3B205
:101E380007F11C006C6889B292B2083BA047B4E66F
:101E48001F4804F063FCB0E697F814C007F11403C8
:101E5800BCF1050F7FF4A9AE93F801E0BEF1010FC4
:101E68007FF4A3AE07F11801164804F067FC9CE65E
:101E78003246A11D2046FFF71DFE4FF4007CA7F84F
:101E880006C05246064607F10E05594607F11200EC
:101E9800FEF7FAFC01982946FFF708FE524609F1B9
:101EA80008015846FEF7F0FC284609F11801FFF72B
:101EB800FDFD204606F11C01FFF760FA75E600BF3C
:101EC80074170100841701002DE9F044294D82B0F0
:101ED800EE6B294940F606023046FFF7EBFD4FF45A
:101EE80080723418062332524FF0080C4FF0040A5F
:101EF8004FF4807604F108071A462371A4F802C04B
:101F0800E68005F1080184F805A03846FEF7BCFC18
:101F1800A96902AE46F8041D5246314604F10E0086
:101F2800FEF7B2FC0023E375A374E37423756375AD
:101F3800A375EB69A8692A6C83EA0001114201D0F4
:101F48006B6C83B16B62314607F110000422019378
:101F5800FEF79AFCE86BC0F11C010919FFF70EFAAD
:101F680002B0BDE8F084054804F0D0FBEB696B6271
:101F7800E9E700BFE00E002034000020A4170100AC
:101F880038B5044610B9054B986438BD034D002098
:101F9800A964FEF7E9FE2C65E86438BDE00E002070
:101FA80038B5254803F024FC044618B12349FEF748
:101FB80075FAE8B9224D6B6D5C1C6C65FFF7D0F9BA
:101FC800AA6D1F4CD2F1010038BF0020FFF744FA78
:101FD80041460868FFF750FBE86D30B1236E0020DA
:101FE800E065DBB90422226038BD0223236038BDD6
:101FF80020461449FEF752FA28B9114DFFF7B0F9F7
:1020080004232B6038BD20460F49FEF747FA68B90C
:1020180001200B4D6B6D9842CED8EFE70B4942F289
:102028001070FFF7ADFF0A49616038BD00212046F6
:102038000A4608F075FDECE7D0170100DC1701002F
:10204800E00E00205C160100E0170100991800005E
:10205800A518000010B50F4CE36903B910BD0020A6
:10206800FEF782FE636E41F28831C21A8A42F5D9C0
:10207800A16E4A1C042AA26603DC6066BDE8104013
:1020880022E7054804F042FB0020A066BDE81040A6
:1020980086E700BFE00E0020E81701002DE9F044B4
:1020A80082B0089F019117F0010F044615469A4621
:1020B80003D007F11C030022C254002633494523EC
:1020C80023706670CB6EBFB207F11C0290B29AB251
:1020D8004FEA122C4FEA102E4EEA002001334CEA48
:1020E800022ECB66A4F804E04FF0FF334FF0400E09
:1020F80011222372608062721831A4F806E004226B
:10210800668104F10C000837FEF7BEFB1FFA8AFA55
:1021180001A90422ADB2BFB204F11000FEF7B4FB6E
:102128004FEA1A2C280A3B0A4CEA0A2A40EA0525F3
:1021380043EA0727A4F814A0E58227836683A21C34
:102148002088638851880232C318508802325B188D
:10215800518802321B18508802325B1851880232AB
:102168001B18508802325B1851881B1892885B181C
:10217800D31898B200EB134C1FFA8CF202EB1C41F7
:10218800C843608102B0BDE8F08400BFE00E0020C3
:102198002DE9F04E84B0934699460C9D0E460029D1
:1021A80028D1344F344C384604F170010622FEF72A
:1021B8000BFC4FF0FF36844600282AD0D4F83CA008
:1021C80039464FF400625046FFF774FC0AEB0007EB
:1021D800384631465A464B460095FFF75FFFE06B9D
:1021E80005F11C033F1AD919FFF7C8F8002004B0FD
:1021F800BDE8F08E1F4F204CB1F1FF3F18BF0746D6
:10220800384604F170010622FEF7DEFB84460028FA
:10221800D4D1D4F828A039464FF400625046CDF8FE
:102228000CC0E6612762FFF745FC0AEB00074B4646
:10223800314638465A460095FFF730FFA26AE06BF0
:10224800B91A1C3109182A4607F11C00FEF71CFBB5
:10225800A36ADDF80CC0FF1A1C3560460126ED198B
:10226800E562A666FEF780FD6066FFF72DFE304644
:10227800BDE700BF34000020E00E00202DE9F04E3D
:10228800934D944C05F5E273DE1C04F19709002385
:1022980029F01F02414626F01F07012602F5406C6F
:1022A80002F5C06E88B0E362A36523662362E3612A
:1022B8006362E263A76266650F68C5F8A0E1C5F8C6
:1022C800A4C18146FFF74CF8FFF796F83846FFF7A8
:1022D800D3F90028C0F2F78006FA09F240F2131B7E
:1022E800C0F2000B02EA0B00B24600922646834673
:1022F800FEF7F2FF062200F110017748FEF7C4FA54
:1023080043461F68C4F800A0019703F0D7F9D5F831
:10231800C8170746884224D001980422011D6F4837
:10232800FEF7B2FA6E4803F063FA08F09BFB70649C
:102338006C4803F05DFA08F095FB30646A4803F0D6
:1023480057FA08F08FFB30636848FFF759FB684B72
:1023580058806848FFF754FB5D49654AC1F8C8775B
:102368001080B9F1090F09D9C4F860A0B9F1040FB8
:1023780035D8DFE809F06B2E34686100BBF1000F37
:1023880013D055485C490622FEF71EFB0028EBD106
:10239800FEF7CCFFB0F1FF3F7AD000287ED1574836
:1023A80004F0B4F9FFF7FCFD1CE0009A12F4027F78
:1023B800DAD0216B002978D0B369002BE1D15048DD
:1023C80004F0A4F9FEF7CCFF4FF0FF3008B0BDE8E9
:1023D800F08E4C4F0023A3613B6000F0A9F8002069
:1023E800C5F8CC07FEF7DAFF04F08AFA074600289A
:1023F80061D1FFF72FFEA16C384631B1FEF7B4FC6E
:10240800F16C336D421A9A4212D82368032B07D015
:10241800042BD9D0022BE5D12E4FC7F858A067E777
:10242800D5F8CC17C9B9FEF79BFFD5F8CC07CDE78F
:10243800B06CB7648047E8E7334800270760A761B6
:1024480000F0C6FDCBE700F093F9C8E72E4A00215B
:102458001160A16100F0F2FCC1E70A462B4804F0C4
:102468006DF91B4903ACD1F8CC272046284909F05F
:1024780033FC2146274803F0DBFB274B24491A6825
:10248800204609F029FC2146244803F0D1FBCAE77D
:10249800234804F03BF9FEF763FF95E7014621481E
:1024A80004F04CF9FFF77CFD9CE71F4804F02EF977
:1024B800FEF756FF88E7FEF753FF1C4804F026F99D
:1024C8004FF0FF3082E7FEF74BFF4FF0FF307DE71C
:1024D800D81F0020E00E0020E80E0020F80E002093
:1024E80014180100201801002818010034180100F0
:1024F800300000203C18010014170100A418010046
:1025080064180100B02800206C290020EC18010094
:1025180010190100141901005400002020190100AD
:1025280084180100C418010044180100E4180100CF
:102538002DE9F047264DDFF8B4902E682548741C25
:1025480021462C6004F0FAF8D9F80060224948F2D4
:1025580035023046FFF7AEFA204F4FF4807C34182E
:1025680026F800C006254FF0040A4FF008024FF481
:1025780040706280E08039462A46257184F805A0BB
:1025880004F10800FEF780F95246154904F10E00DF
:10259800FEF77AF92A46394604F11200FEF774F973
:1025A8004FF0FF33E37623766376A376D9F80000FD
:1025B800C0F11C010919FFF7B9FA41F2883009493D
:1025C800FFF7DEFC0848BDE8F047FFF769B900BF30
:1025D800B02800202C19010034000020E80E00204B
:1025E800F80E002025260000F92500001C0F002009
:1025F80010B5084803F0FCF818B190F900306E2BBC
:1026080003D0BDE8104000F0B3B8034803220260CD
:1026180010BD00BF40190100E00E0020094810B5A8
:102628000368042B07DC41F288300749FFF7A8FC50
:10263800BDE810407CE7054804F068F8BDE81040A4
:10264800FFF7AEBCB0280020252600004C19010079
:10265800F0B53C4883B00768FFF7D8F93A4C1C300E
:1026680021683D184B1E042B69D8DFE803F0342796
:102678001A0327004FF4A0614FF400733952281D44
:102688006B803249FDF796FE1725D4F89030D4F8C0
:102698008810D4F88C202E480095FFF779FD03B0F8
:1026A800F0BD4FF4A0624FF4407E3A522949281DEC
:1026B800A5F802E0FDF77EFE1325E6E7B4F88410DE
:1026C8004FF4806C27F800C0080A40EA01239AB248
:1026D8006A800425D9E74FF4807EAE1C27F800E015
:1026E8001D493046FDF766FE1B48FDF75DFF411C9E
:1026F80076181A4F1A493046FDF75CFE1949B01D85
:10270800FDF758FE386844F6D35CC1F2620CACFBA6
:1027180000130E369A091449304609F0DDFA30469E
:10272800FDF742FF421CBB88B618002730463A46E0
:102738000E49009709F0D0FA3618751BA5E7002551
:10274800A3E700BF1C0F0020B4280020A019010037
:10275800140F002090190100B82800203C00002028
:1027680074190100C81901007C19010080190100C1
:10277800F0B56E4883B003F03BF8002800F0CC8039
:1027880000210A2208F032FA694DA880694803F04E
:102798002FF8002800F0B38000210A2208F026FA5A
:1027A800B0F57A7F2860C0F0AF80634F6349644C0E
:1027B800086897F90060C4F88800002E7FD1614B43
:1027C80061491A6804F19400C2F3074CC2F3072365
:1027D800170ED2B2CDF800C0019709F07DFA04F1C6
:1027E8009401201D8022FDF7EDFD5848211D84F835
:1027F800836003F0A3FFFEF7DFFD514E514F014602
:10280800534803F09BFF534806F188013A4603F00A
:1028180095FF5149086818B1504A1368002B62D1D6
:102828000A204F4E04F04EF84E494F4803F086FFF9
:10283800318841B149024D4803F080FF33884C4943
:10284800580207F025FB0A2004F03CF8494A4A4898
:10285800116803F073FF494803F058FFEE684849D0
:102868002868AE60FFF78CFB00264648FFF718F88B
:102878000123452130462360C4F88C10C4F8A460B5
:10288800FEF772FA4AF6AB2CCAF6AA2CACFB003259
:10289800D10A01EB4102A0EB822C0CF58063314692
:1028A80006223948C4F89030C4F88460FDF77EFFEA
:1028B8004FF40071298203B0BDE8F040C8E63846FD
:1028C8003A21FDF737FE064640B3384608F0CAF805
:1028D800711CC4F888008022201D0026FDF772FDB7
:1028E80084F8836087E73A68D6F8880003EA020E1E
:1028F80003409E4594D0254803F020FF90E72868C0
:10290800B0F57A7FBFF451AF0146214803F016FFB6
:102918004FF47A732B6048E7054D37E73946201D99
:102928008022FDF74FFD84F8836064E7B419010045
:102938003C000020C419010030280020100F00209E
:10294800B4280020F80E0020081A0100241A0100FB
:10295800501A0100641A0100240F0020200F0020E3
:102968002C280020B8280020B41A0100C41A01003D
:102978008826010054000020DC1A0100F41A010026
:102988009D290000E9290000140F0020941A010075
:10299800D01901000D4A10B50D4CD2F8A400A16859
:1029A800431C8B42C2F8A43009DC0A4803F0AEFE8F
:1029B80020680949FFF7E4FABDE8104048E60748EF
:1029C80003F0A4FEBDE81040FFF7EABAB4280020DF
:1029D8003C000020001B01009D2900004C1901004B
:1029E8002DE9F046A04C0546D4F8900083B0884203
:1029F80002D003B0BDE8F0862168012903D0D4F8DD
:102A08008C009042F5D1012BF3D92E4636F8020BF3
:102A18009F1E4FEA102C4CEA002080B2052800F0D7
:102A2800C780062874D00328E3D1012FE1D96B8829
:102A38008D4D180A40EA03239BB2C4F88430002B5A
:102A480000F0F0804CF6CD4003F1FF3CCCF6CC40D2
:102A5800A0FB0CA0C00800EB800ABCEB4A0F00F0FA
:102A6800FA8043F2FD3ACCF6A61AAAFB03C040F25C
:102A78008A2A400A0AFB1030002800F01681012932
:102A880014BF4FF0000C4FF0010C052914BF61462C
:102A98004CF00101002900F0AF8000210220012B39
:102AA8002060C4F88C20C4F8AC10C4F8B010C4F886
:102AB800A81040F0F1806D4DC4F8B0300A236C497D
:102AC8002868AB60FFF75CFAD4F88410D4F8AC201F
:102AD800B5F810C0481E00FB0C24664B023F1A686C
:102AE800B11CA0183A46FDF7CFFE63493C190868A7
:102AF800844288BF0C60FFF7ABFD2B8A9F42BFF46E
:102B080078AF5E4803F002FE5D4A0320106070E76C
:102B1800C4F88C200522082F226045D90B3B59495F
:102B2800304603F00109FDF7B9FCDFF840A1014682
:102B3800002867D001257419092F35D9B9F1000F7C
:102B48001AD050492046FDF7A9FC0146002861D05B
:102B5800013505F1080C013467450DD824E04949D1
:102B68003046FDF79BFC01350146A8B105F1090E79
:102B7800741C0135774517D942492046FDF78EFC6C
:102B8800661C01460028EAD104F108000A2207F071
:102B9800C7FFAAF81000E2E704F109000A2207F0CB
:102BA800BFFFAAF81000E1E703B0BDE8F0464FE523
:102BB8006B88B11C180A40EA032E1FFA8EF23248BD
:102BC80003F0BCFD6888020A42EA002C1FFA8CF365
:102BD800591E012908D82D4803F098FDFEF7C0FBBF
:102BE800274A0421116004E7294803F08FFD03B048
:102BF800BDE8F046FFF7D4B9D4F8B0209A423FF4C4
:102C0800F8AE58E705F10A000A2207F089FFAAF88A
:102C180010008FE706F109000A2207F081FFAAF8E1
:102C2800100095E71148D5F8A810D5F8AC30B0F8E1
:102C380010C001F1010E03EB0C43190DC5F8AC30BF
:102C48001448C5F8A8E0019203F078FDD5F884305F
:102C58002968019A13E72320019203F033FED5F87F
:102C680084302968019A0AE7B42800203C00002033
:102C78009D29000054000020A4270020681B0100A3
:102C8800E00E0020041B0100701B0100881B0100DE
:102C98009C1B01000C1B01001946084803F04EFD5F
:102CA80003B0BDE8F046FFF77BB90548019203F091
:102CB8002DFDD5F884302968019AE0E6281B01002B
:102CC800241B01002DE9F00E4FF0630C044604F8B4
:102CD80001CB661C751C6F1C07F1010A0AF101097A
:102CE80087B009F1010B01970BF101070497013730
:102CF8000397013705976FF07D0747704FF053072B
:102D0800677086F801C04FF0350C85F801C0019C4A
:102D18004FF0010C84F801C04FF002078AF8011047
:102D2800392189F801108BF80170049D40216F70DA
:102D3800039C6170059F07EB0C0194463AB3120699
:102D480042EA1C664F1C0CF47F4546EA05297E1CA6
:102D5800751C6C1C03940CF47F0B059C49EA1B2220
:102D68004FF0360A84F801A04FEA226C4FEA224954
:102D78004FEA222B4FF0040A81F801A087F801C01E
:102D880086F8019085F801B0039F7A70B91C0BB3DF
:102D98000A461D06322402F8014B45EA136903F47A
:102DA8007F4649EA062A03F47F07561C4AEA172396
:102DB800751C6C1C4FEA236A1F144FEA232C4FF032
:102DC800040981F8019082F801A0A11C777085F8A8
:102DD80001C063700A46372502F8015B541C631C66
:102DE8001B1A4FF0000C4FF0FF35402B81F801C043
:102DF80055701EDC0B1D181A034681F803C0C0F17C
:102E08004100591C402B00F0010012DC38B10B4680
:102E18000131481E402882F803C0224609DC501CB4
:102E28004B1C82F803C0591C421C402B80F803C07D
:102E3800F5DD184607B0BDE8F00E70472DE9F04EF5
:102E48005B4EDFF888B1706886B0421C00251146D9
:102E580058483560726003F071FCDBF80040294681
:102E680040F2EE522046FDF7A1FC53494FF40062B0
:102E78002046FEF71FFE241804F11C0901274FF015
:102E8800060A277789F8017089F802A089F80350A3
:102E980028460297CDF80CA0FDF766FF44F6D353F9
:102EA800C1F26203A3FB001CCCF38F120DF1180AC8
:102EB800110A4AF8045D41EA0227A9F80870514648
:102EC800042204F12800FDF7DFFC5146042204F136
:102ED8002C000595FDF7D8FC5146042204F130007A
:102EE8000595FDF7D1FC5146042204F13400334F17
:102EF8000595FDF7C9FCDDF80CA03946524604F1EA
:102F08003800FDF7C1FC04F1880080222C49FEF747
:102F18002BFD029B2A46194604F584702B46FFF7C1
:102F2800D1FE8246F878BA780304797943EA0260D8
:102F380097F804C0084340EA0C212846B160FDF721
:102F480013FFB3683146C3181A0642EA136503F43F
:102F58007F4003F47F0C45EA002242EA1C2541F831
:102F6800085F042204F12000FDF78EFCDBF8000066
:102F7800432244230AF1EC05C0EB09094FF0FF3165
:102F880020460095FFF78AF80E4940F6B830FEF75C
:102F9800F7FFA94403230C483360FEF781FCDBF8F4
:102FA80000004946FEF7C2FD06B0BDE8F08E00BF3E
:102FB80068290020B01B010034000020E80E002022
:102FC80030280020DD2F0000B13100001C0F002048
:102FD80034E700BF094810B54368042B07DC41F209
:102FE80088300749FEF7CCFFBDE8104026E70548C2
:102FF80003F08CFBBDE81040FEF7D2BF6829002023
:10300800DD2F00004C1901002DE9F04E037882B045
:10301800FF2B0446894600F509763FD06C31DFF86E
:1030280074B1019100275A1E6578422A4BD8DFE80F
:1030380002F0444A3E4A4A384A4A4A4A4A224A4AD6
:103048002E4A784A4A4A4A4A4A4A4A4A4A4A4A4AC6
:103058004A4A4A4A4A4A4A4A4A4A4A4A4A4A4A4AC8
:103068004A4A4A4A724A2E4F4A4A4A2E2E4A4A4ADF
:103078004A4A4A2E55001F2DDCBF2A46AA4666DC5E
:103088003C48A11CFDF700FC3A4B03F80A700235D6
:103098006419A64202D92378FF2BC4D102B0BDE837
:1030A800F08EA11C04223448FDF7EEFBEFE7A11CCB
:1030B80004223248FDF7E8FBE9E7A11C0422304866
:1030C800FDF7E2FBE3E719462E4803F037FBDEE79E
:1030D800A11C04222C48FDF7D7FBD8E77F2D2CDC58
:1030E8002A1E18BF0122AA4699F96CC0BCF1000F2C
:1030F80014BF002102F001010029C8D0234803F0C1
:103108001DFB0198A11C5246FDF7BEFB0AEB090303
:1031180083F86C70BBE7A11C04221D48FDF7B4FBC3
:10312800B5E73F2DDCBF2A46AA4619DC1948A11C81
:10313800FDF7AAFB0BF80A70A9E72A4616481749B3
:10314800802303F0FBFA4FF07F0A0122CCE72A46DE
:1031580011481349202303F0F1FA1F2292468FE702
:103168002A460D480F49402303F0E8FA3F229246C9
:10317800DCE700BFCC270020A8270020240F002070
:10318800200F0020541C010078290020241C010075
:1031980074290020EC270020C41B0100141C010026
:1031A800FC1B0100081C01002DE9F04E443918BF32
:1031B8000121432A0CBF0A4641F0010286B00446A9
:1031C8000AB9EB2B02D806B0BDE8F08E03785A1E78
:1031D8005FFA82FC591F18BF0121BCF1010F94BF8F
:1031E800002001F0010008B1062BECD16378012B17
:1031F800E9D1A0780628E6D10DF1140BDFF860922A
:10320800211D042258460391FDF73EFBD9F808100A
:10321800059A9142D7D1D9F80020042A07D0062A66
:10322800D1D0032A25D0804803F070FACBE704F107
:10323800EC0604AD28463146FDF726FB48F2632329
:10324800049AC6F253339A42BDD194F8F03004F18F
:10325800F007FF2BB7D0352B3B4603D184E0352A46
:1032680000F082805878811C5B181A78FF2AF6D102
:10327800A9E704273A46584604F1EC01C9F800705A
:1032880048F26326FDF700FB059DC6F25336B542AA
:1032980064D0664F41F288306549FEF771FE3D689B
:1032A8000021284640F2EE52FDF780FA4FF4006202
:1032B80028466049FEF7FEFB2D1805F11C06002183
:1032C80001204FF0060AF1707070287786F802A086
:1032D80008460291FDF748FD44F6D352C1F2620256
:1032E800A2FB001CCCF38F12130A029843EA022CAB
:1032F80006A9A6F808C041F8080D042205F1340013
:10330800FDF7C2FA524605F138004B49FDF7BCFA01
:103318000399042205F12000FDF7B6FA04F1100123
:1033280004225846FDF7B0FAD9F81020059B03216E
:1033380005F58470FFF7C6FC3B6800F1EC04F01A51
:1033480006194FF0FF312846432244230094FEF724
:10335800A5FE38683146FEF7E9FB34E704F1F000D2
:103368002146FFF751FE94E793F802E0BEF1050FFE
:103378007FF429AF314604222846FDF785FA48F242
:10338800632C049EC6F2533C664547D004F11001F5
:1033980004222A4804F11406FDF776FA2846314635
:1033A8000422FDF771FA049D002D31D1244B6C34B1
:1033B8001A682448911D0622FDF766FA2046FDF793
:1033C800F3F8F0B9204D95F9001019B11F481E49BE
:1033D80002F02EFC1E4806221849C9F8002003F006
:1033E800ADF91C4802F004FA20B190F900E0BEF1F2
:1033F8006E0F02D0FFF7BCF9E5E6174B0320186003
:10340800E1E6114D214628468022FEF7ADFADAE7BB
:10341800314604221148FDF737FAC7E738462146F6
:10342800FFF7F2FDB2E700BFA41C01001C0F00204B
:10343800DD2F000034000020E80E0020F80E0020E8
:10344800F00E0020140F0020302800200C1301007B
:10345800801C010040190100E00E0020100F002020
:103468006829002008B50320FDF762FD43469A68E5
:10347800996800EBC2000B01B0FBF3F008BD00BF78
:10348800064B013810B553F820402046FFF7EAFFF5
:1034980001462046BDE8104000F082B8BC1C01007F
:1034A8000120EDE7024B013853F8200000F0A2B8E4
:1034B800BC1C01000120F5E708B5044B013853F89E
:1034C800200000F08FF840B208BD00BFBC1C01000E
:1034D8000120F1E7034A0139034652F82100194651
:1034E80000F078B8BC1C01000121F3E70A2870B588
:1034F800044609D0094B013953F821502846214682
:10350800BDE8704000F066B8044A481E52F82050E2
:103518000D21284600F05EF8F0E700BFBC1C010052
:103528000121E3E738B503780D4643B1044658B2A4
:103538002946FFF7DBFF14F8013F002BF7D138BD10
:103548000121EFE708B54FF08040FFF78BFF0146F8
:103558004FF0804000F002F8002008BD002330B48E
:103568006FF07C020C14037102730370037107235C
:1035780014F0FF0F4FF0030CCDB218BFE4B2C1F343
:10358800072180F80CC080F810C003720273057020
:10359800017118BF80F828400323037330BC7047BB
:1035A800002210B46FF07C040271032304730270CC
:1035B800027107220373C1F3072C0374C9B20272A4
:1035C8006FF07F020273017080F804C0037310BCAF
:1035D800704700BF037D13F0200FFBD0C9B2017004
:1035E800704700BF037D13F0010FFBD0007840B295
:1035F800704700BF007D00F00100704730B54346BA
:103608001C6885B0E2681C481C4903F097F8A2685A
:1036180019481B4903F092F822691748194903F021
:103628008DF800221448184903F088F86269124896
:10363800164903F083F801ADA2690F48144903F055
:103648007DF814492846FCF7B5FE284602F0D0F864
:10365800114A2946002818BF0246104803F06EF8A0
:10366800211D0F4803F06AF821680E4803F066F838
:10367800002005B030BD00BFCC1C0100DC1C0100DF
:10368800E81C0100F01C0100FC1C0100081D0100E1
:10369800141D0100641601001C1D0100281D0100F5
:1036A800341D0100481D010008B5034608461146AF
:1036B800984708BD012A70B5144619DD58681022CC
:1036C80000211D1D07F02CFA064601460B4803F0A1
:1036D80035F8611E2A463046FFF7E6FF04460146E4
:1036E800003C18BF0124064803F028F8204670BDA6
:1036F800012402F03BFD204670BD00BF841D01007F
:10370800AC1D0100704700BF021E18BF01228028AF
:103718000CBF002202F0010210B552B91C6E064817
:10372800214603F00BF80F2004F000FD434618680B
:10373800A047012010BD00BF6C1E01002DE9F04E0E
:10374800B0F1000C18BF4FF0010C84B080280CBFFA
:1037580000200CF001000C461546009300287ED18D
:1037680093F82230009A042B166800F08480002613
:103778000196022C77DDA868FCF716FF0326A4F152
:10378800030A471CB4420AF0010A1ADDBAF1000F15
:1037980007D0E868FCF708FF0426C1194F1CB4429B
:1037A8000FDD55F82600FCF7FFFE0136C31955F862
:1037B80026005F1CFCF7F8FE0136C7190137B44232
:1037C800EFDC384603F0DCF914F0010F4FF0020982
:1037D8004FF0000A4FF0200B064620D1A968FCF7ED
:1037E800E9FD4FF00309A868FCF7DEFE4C4527DD2C
:1037F80006F800B000F1010A043510E006F80AB036
:10380800B968FCF7D7FDB868FCF7CEFE00EB050CED
:1038180009F1010906F80CB00CF1010A3D1DA9686F
:1038280006EB0A00FCF7C6FDA868FCF7BDFE82445B
:103838002F1D09F101090AF1010570194C45DDDC5C
:103848000098046E1248214602F078FF0F2004F019
:103858006DFC42461068019933460E4AA047012084
:1038680004B0BDE8F08E0C4801F0C2FF094E0028F4
:1038780018BF0646E4E70121304603AA02AB04F06C
:10388800D1F8029900293FF472AF019671E700BFA1
:10389800B41E010088260100A81E010084B02DE98D
:1038A800F04E82B00DF1280C8CE80F009DF83D1009
:1038B8009DF83CB00D9B064608460193109FDDF825
:1038C80044A00E9C0B9DDDF8309004F009F8BBF184
:1038D800000F21D1B44201464BD0304802F02EFFF0
:1038E8004C4506D049462046019A4FF4803304F0EF
:1038F8002BF9019B2A48E2183A6002F007FF284892
:1039080002F004FFBAF1000F29D0072004F00EFCE2
:10391800AC4226D3002008E0BBF1010F0AD02148B1
:10392800594602F00BFF6FF0020002B0BDE8F04EFE
:1039380004B0704701461C4802F000FF20464A4682
:103948004FF4000101AB06F0A9FCB0B90199601869
:103958003860134802F0DAFEBAF1000FD5D1AC4254
:10396800D8D23A68B24288BF6FF00100DDD8002093
:10397800DBE70E4802F0E2FEBBE70D4802F0C6FEA8
:10398800BAF1000F02D14FF0FF30CEE76FF005001B
:1039980004F0CCFB4FF0FF30C7E700BF101F010059
:1039A800241F0100981F0100281F0100001F0100AB
:1039B800441F01002DE9F04EB14C82B0002117469A
:1039C80082464FF4967220469946FCF7EFFEAD48C2
:1039D80003F0BAFFC4F8840004F18C0006F0B2FCCE
:1039E80003F0BEFF054604F01DF92946024604F11E
:1039F8008C0006F007FE04F18C000BF051FD04F179
:103A08008C0007F019F8012F40F3CB80D9F8040097
:103A18000021102207F084F80546012004F086FBF7
:103A2800284603F08DFF4FF0000B0646C4F854B04B
:103A3800C4F850B0054603F0DFFF012818D0DAF8C3
:103A48000010914802F07AFE6FF06B0004F06EFBF4
:103A58005D46626D8A4E002A54D0284603F0CCFF9A
:103A68000128834653D0894802F050FE012095E092
:103A78008748314602F062FE336841F6561219064D
:103A880041EA136103F47F4041EA002C03F47F0B01
:103A98004CEA1B20C2F2057279499042D1F884B0F1
:103AA80040F0AB80022004F041FB304604F0CAF835
:103AB800002800F0D380032004F038FB304604F0DF
:103AC80009F9BBF1000F0BD0724802F01FFE304617
:103AD80004F0DAF8002800F0CA806F4802F016FEF9
:103AE800042004F023FB717F02295DD06B4802F0AB
:103AF80025FE6FF0030004F019FB0025626D604E8F
:103B0800002AAAD1664802F001FE012046E0A97FFA
:103B180086F85D10E87F86F85C00287F86F85E00EE
:103B2800EA682B694FEA026A4AEA126E02F47F4C8D
:103B38004EEA0C2A02F47F024FEA036C4CEA136E39
:103B48004AEA122203F47F4A4EEA0A2C03F47F0E53
:103B58004CEA1E234032B365736C5219F264002B91
:103B680077D0B369022914BF002201224FEA036A01
:103B78004AEA136E03F47F4A4EEA0A2C03F47F0ED6
:103B88004CEA1E23042914BF114642F00101336692
:103B9800F9B90120C4F88800A564002002B0BDE886
:103BA800F08E404B1D6838E7052004F0BFFAB37F5C
:103BB800022B3DD0042B29D0012B39D0DAF8001084
:103BC800394802F0BBFD6FF0040004F0AFFA00259D
:103BD8003FE70528DDD13846324606F164074946F5
:103BE800683602230097019604F0B6F90028D0D071
:103BF8002E4802F08BFD5846D0E72D4802F086FD8E
:103C08004FF0FF3004F092FA002577E7294A304652
:103C18000021131D03F006FF314640222648FCF719
:103C280081FE266006200126666404F07FFA10E70C
:103C3800F36806F14002190641EA136103F47F4074
:103C480041EA002C03F47F0E4CEA1E2322656365CB
:103C5800E2E71A4802F05AFD58469FE7184802F072
:103C680055FD6FF0010004F061FA002546E715489C
:103C780002F064FD6FF0020004F058FA00253DE7F9
:103C88007C290020BC1F010094200100D8200100DD
:103C9800C41F010024200100241F0100502001003E
:103CA800B8200100540000207020010020210100EC
:103CB800F81F0100CC29002080290020FC200100E9
:103CC8000C200100402001002DE9F04405468AB08F
:103CD80058680C461746584907221E4602F052FA01
:103CE800331D002836D0D0F80CA0BAF1010F00F02F
:103CF8009B80524CD4F888309A4528DD4AEA030064
:103D080094F85E204E4BBAF1100FC4F8880053F8AF
:103D1800225027D007DCBAF1020F2FD0BAF1040FD6
:103D280054D000251AE0BAF1400F43D0BAF1800F01
:103D38006FD0BAF1200FF4D15046394632462346A7
:103D4800A847054650B13F4802F0F8FC06E03E4857
:103D580002F0F4FC284602F009FA012528460AB0C8
:103D6800BDE8F0845046394632462346A847054602
:103D78000028F3D0354802F0E1FCEFE704F15802DF
:103D8800EE4692E803008EE8030004F1480C09AD02
:103D98009CE80F00029500250395FFF77FFD054677
:103DA8000028DBD1A16D099B04F18C005A1A06F09A
:103DB80001FDD3E75046394632462346A847054613
:103DC8000028CBD0224802F0B9FCC7E7A06E616E8C
:103DD80004F17405421A04F1700304F18C00009593
:103DE80003F0B4FE05460028B8D104AE226F304671
:103DF800184907F071FF3146174801F019FF30469E
:103E0800626F144907F068FF3146144801F010FF4B
:103E1800A4E7FDF77BF9FFF775FC504639463246B3
:103E28002346A847002599E7284621467A1EFFF72A
:103E3800C1FD054692E700BF580000207C290020FC
:103E4800201E0100B8210100482101009421010031
:103E5800D821010074210100782101008821010086
:103E68002DE9F04E144690B00022012C0F928246A4
:103E780089461D4612DD58680EA9102206F050FE2C
:103E88000E9B93F90030181E18BF01203A2B0CBF67
:103E9800002000F0010008B1232B5ED150464946AE
:103EA80022462B46FFF786FD18B1012010B0BDE869
:103EB800F08EFDF72BF9584F6A4607F15803059025
:103EC80093E8030082E8030007F1480C0FAE9CE872
:103ED8000F00029601260396FFF7E0FC002829DB75
:103EE800B96D0F9ADFF830B1521A0BF18C0006F059
:103EF80061FC97F85DC0BCF1010F35D0082004F0D3
:103F080015F99BF85E00454A52F82060002E4AD009
:103F1800FFF7F8FB5B4621462A460020B0476FF0C2
:103F2800080004F003F95046494622462B460BF098
:103F3800D5FABAE7B0F1FF3F5BD010F1020F46D0D7
:103F480010F1030FCCD1059808B1FDF7DDF86FF03B
:103F5800060004F0EBF80120A8E75046494622463F
:103F68002B46FFF7B1FEA1E7059B0BB1FDF7CCF897
:103F78002B4801F03DFC28B12A49FCF78FFA064688
:103F880000283DD03A6E601E110641EA126302F421
:103F98007F4C02F47F0143EA0C2E4EEA112C291DB6
:103FA800E047002082E7059B1BB1FDF7ADF89BF8C1
:103FB8005E0003F069FC97F85E2001461A4802F09B
:103FC800BDFB6FF0070004F0B1F801206EE7796CD3
:103FD80041B197F822B0BBF1040F81D1134802F028
:103FE80095FB7DE7124802F091FB6FF0700004F03A
:103FF8009DF85046494622462B460BF06FFA6FE76C
:1040080006AC7A6D0B49204607F066FE21460A4841
:1040180001F00EFE304649E77C290020201E0100F1
:104028007C2201005C16010088220100F8210100B1
:1040380034220100101901001419010030B50D4C8B
:104048000D4D8646281B801000EB400505EB051C2E
:104058000CEB0C2583B08C4605EB054500920193CB
:1040680000EB850172462046634602F025F903B04D
:1040780030BD00BF385F010090610100C3B203F09A
:104088006002402A06D003F07F033F2B08BF40F0B0
:104098004000704720F04000704700BF037863B1CC
:1040A800002259B210F8013F5218002BF9D1C2F37F
:1040B8008110821802F03F0070471846704700BF11
:1040C800024B00219A6819605A607047A82A00209C
:1040D800034B1A681AB9596801F8010B59607047FF
:1040E800A82A00200348002208B5C260036998473F
:1040F80008BD00BFA82A0020034BD8681A68596871
:104108005861D9619A617047A82A0020034B586901
:104118009A69D969D86059601A607047A82A00203E
:1041280010B5114C0346E2689AB1C1B201F06000C3
:104138004028226A08BF23F0400305D001F07F0120
:104148003F2908BF43F04003184690470023E36027
:1041580010BD94F924C0844502D0216A884710BD57
:104168000122E26010BD00BFA82A002070B5124DE0
:10417800AC6A002C1CDD013C95F92C0004F001060A
:1041880002F0A0FB002C14DD36B1013C95F92C009F
:1041980002F098FB002C0DDD013C95F92C0002F093
:1041A80091FB013C95F92C0002F08CFB002CF3DC10
:1041B80070BD70BD70BD00BFA82A002010B50446B0
:1041C800FFF7D4FF237833B158B202F07BFB14F821
:1041D800013F002BF8D110BD6C4B00211A6B30B495
:1041E80099620D2403F1470583F82C10674983F879
:1041F8002D402324AA4208BF03F1460201F1340CE2
:1042080008BF1A63CCEB0202002A83F8244066DD5B
:104218004FF07E0C013A81F84CC000F09C802125BB
:10422800013A81F84D5000F08F8091F93640203CDA
:1042380004F0FF05013A4FF020048D6281F84E40EA
:1042480000F08D8091F837105FFA81FC0CF0600562
:10425800402D08BF0CF0BF0106D00CF07F0CBCF15C
:104268003F0F08BF41F0400183F82C104021013A6C
:1042780083F84F10454C79D094F838102D25203903
:10428800C9B2013A84F8505084F82D1060D094F8DF
:1042980039504FF0230C013A84F8245084F851C067
:1042A8006BD04FF04E0C013A84F852C068D03125DB
:1042B800013A84F8535066D0012A84F854C059D082
:1042C8007E2222254FF0200C84F8555084F858207F
:1042D80084F856C084F857201125302402E00D21B7
:1042E8000425232400F1200C83F84940EA1883F8B8
:1042F8004AC0002001244FF0590C83F8484083F845
:104308004BC082F8480093F84920002A2BD0204C53
:104318004FFA82FC14F8012F6044002AF8D1C0F348
:10432800811C0CEB000202F03F0000F1200C681C1D
:10433800C218EB18174883F848C0002382F84930A0
:1043480082F8481030BC39E70D2106252524C9E735
:1043580009252824C6E70D2105252424C2E70D21B7
:1043680007252624BEE74FF0200CE0E70D2108259D
:104378002724B7E70D252C24B4E70A252924B1E71B
:104388000B252A24AEE70C252B24ABE7A82A00200E
:10439800F12A0020F02A0020154A2030232300218A
:1043A8004FF0010C82F84A004E2082F84B0082F848
:1043B80048C082F8493082F84C1002F149004FFA9F
:1043C80083FC10F8013F6144002BF8D1C1F3811040
:1043D80000EB010C0CF03F0000F1200C92F82D10BE
:1043E800044882F84E3082F84CC082F84D10E5E659
:1043F800A82A0020F02A0020154A20302323002173
:104408004FF0010C82F84A00592082F84B0082F8DC
:1044180048C082F8493082F84C1002F149004FFA3E
:1044280083FC10F8013F6144002BF8D1C1F38110DF
:1044380000EB010C0CF03F0000F1200C92F82D105D
:10444800044882F84E3082F84CC082F84D10B5E628
:10445800A82A0020F02A00202DE9F044ADF5866D49
:104468000DF5846A0AF10C0A0223074651460DF538
:104478008460CDF8243405F007FA0446002833D1C7
:1044880005466E4603E0ED18E418FCF7FDF94FF415
:1044980080615246304605F05DF8E119031E1A4660
:1044A80008463146EFDC2C46504604F075FE0020E5
:1044B800134904F0B9FE384621460BF00DF80DF506
:1044C800806429462A460F4802F038F92A460E49E0
:1044D800204607F001FC21460C4801F0A9FB3846AC
:1044E8000DF5866DBDE8F084DDF82C0404F048FE77
:1044F80000240146064802F021F92546D4E700BF0A
:104508001D45000048230100702301001419010013
:104518000036010010B502F0DFF910B94FF0FF3096
:1045280010BDBDE8104002F0E1B900BF2DE9F04E22
:10453800AB488CB016461F4601F05AF9002800F027
:104548007A810021102206F0EBFA04464346012E38
:104558009D6808DD00211022786806F0E1FA032E34
:10456800044600F06B812E4638689E49FBF796FF9B
:104578000746002821D19C482146324602F0DEF841
:104588002046FFF769FFAE4213D02946974802F04C
:10459800D5F84CF2503006F0B3FA43469D60FEF76A
:1045A8007FFF4CF2503006F0ABFA02F09FF91B285F
:1045B800FBD138460CB0BDE8F08E8D482146324616
:1045C8008C4F02F0BBF88C498C4A0D234FF0000A3F
:1045D800232039613A6287F82D3087F82400BC60BF
:1045E800C7F828A087F82CA0FFF77CFDF9683A687F
:1045F8007B687961BA61FB614FF0FF3B07F13409D1
:1046080002940395C7F8309002F070F9012852D04F
:104618000328F9D1029C039D00274FF0000A0FE000
:104628004FF47A7006F06CFA02F056F9C0B90AF144
:10463800010A4FF47A7006F063FABAF1640F1AD0DF
:104648000AF1010A02F048F90028E9D002F04EF90F
:104658004FF47A7006F054FA02F03EF90028E6D0DA
:1046680002F044F90AF1010A4FF47A7006F048FAA8
:10467800BAF1640FE4D1204639460AF02DFF0DF156
:10468800100A5F4839463A4602F058F83A465D49FA
:10469800504607F021FB51465B4801F0C9FAB4F1D6
:1046A800FF3F00F0EC805948214602F047F858488F
:1046B8000027046067E702F019F944B214F0E00F2C
:1046C80000F0AB8002F012F945B215F0E00F00F0EF
:1046D800A480A5F1200A0AF0FF0ADA4500F0168145
:1046E800F9683B6878687961BB61F86102F0FEF8A7
:1046F8004FFA80FB1BF0E00F00F08E8005F0FF03FF
:10470800A4F1200C04F0FF020BF0FF059C180CF03C
:10471800FF006419851E002800F0BC80012D40F3BD
:10472800FF8002F0E3F8C1B248B210F0E00F05F0E4
:10473800010371D000F0FF02A418013DBBF1440F42
:1047480000F02A81BBF1530F00F01A81012D40F3CC
:10475800E780ABB102F0CAF8C1B248B210F0E00F7E
:104768005AD000F0FF03E418013DBBF1440F00F0FC
:104778008E80BBF1530F00F0F780012D40F3D080FD
:1047880002F0B4F8C3B258B210F0E00F44D000F011
:10479800FF016418013DBBF1440F00F0BE80BBF17E
:1047A800530F00F0A88002F0A1F8C3B258B210F07D
:1047B800E00F31D000F0FF02A418013DBBF1440F17
:1047C80065D0BBF1530FD8D1396B084600F8013BCF
:1047D800104B38639842D0D3064A1163CDE700BF27
:1047E80000130100A8230100B02301007824010070
:1047F800F0230100A82A0020C9400000D940000089
:1048080048230100702301001419010058240100F5
:1048180054000020F02A0020D3467969BD69FC695C
:104828005046F9603D607C60FFF7B6FD5346DA46B6
:10483800D3469A46E6E64FF0204487E6B86800215A
:104848000A2206F06DF9064600283FF48CAE854230
:104858003FF48AAE0146584801F070FF4CF25030E0
:1048680006F04EF940468660FEF71AFE4CF25030CC
:1048780006F046F902F03AF80D28FBD174E64F4AE3
:10488800002717604E4801F059FF01277BE6FFF724
:1048980047FC72E702F02AF843B213F0E00FBBD0EE
:1048A800019302F023F845B215F0E00FB4D002F0FE
:1048B8001DF840B210F0E00F019BADD003F0FF02ED
:1048C800111905F0FF028A18941104F003018C18DD
:1048D80004F03F01203188429ED1A5F12004203BFD
:1048E80004F0FF0C03F0FF0E00F0FF005F2303FB52
:1048F8000EC5841812E7386B024602F8013B314BAB
:104908003A639A4224BF304A10634CE77A69BB691C
:10491800F869FA603B607860E8E6FFF701FC42E777
:1049280001F0E4FF40B210F0E00F3FF475AFA311BF
:1049380003F00302111901F03F052035A8427FF466
:104948006BAF01F0D3FF4FFA80FCBCF10D0F7FF481
:1049580063AFBBF1530F504629D0FFF74DFDBBF1B4
:10496800420F1ED0534663E73A6B1648134603F8C6
:10497800011B83423B63FFF400AF13490A63FCE663
:10498800386B024602F8011B0E493A638A42FFF46B
:10499800DDAE0D490863D9E60193FFF7C1FB019B22
:1049A800D4E6BA687968029C039D8F1A35E6FFF74A
:1049B80013FC53463CE700BF742301005400002059
:1049C80030240100F02A0020A82A00202DE9F04E0A
:1049D800ADF5527D06AC48F21F590027C5F2EB1918
:1049E8004FF0FF3A04F501724E4D04903E46039293
:1049F800CDF808A0CDF81490BB46B246274601F082
:104A080075FF2968C6B200297ED14FFA86F9B9F137
:104A18000D0F08D8DFE809F08307078307070707A2
:104A28000707160707163E704146CB693E4A586885
:104A38000137904203D001F063FF00286FD1039E35
:104A4800BE42DCD83A46101B0023002856465F4673
:104A5800137064DB2046D1A9D0AA88AB04F0D0F942
:104A680000285CDB013808281AD8DFE800F00505C3
:104A7800051919192A2A2A00D09B049888A900EB3D
:104A8800030BD19A5846FBF7FFFED199029A4B1EA9
:104A980003EB0B095A4528BF5A464E45029200D3EC
:104AA800B1462E685EB9059B013783FB073EF817B0
:104AB800C0EB6E1C642202FB1C7100292AD04E46F2
:104AC8009AE7DDF808A0741CCAEB040442F21070DF
:104AD80006F016F82346324614485146C8AD0094ED
:104AE80001F02CFE504621460AF0F6FC22461049F9
:104AF800284607F0F1F829460E4801F099F8D098B1
:104B08000DF5527DBDE8F08E4FFA86F9484601F062
:104B1800D9FE7CE72E2001F0D5FE4E466CE74FF01B
:104B2800FF30EDE7E4000020F5680000A82401004C
:104B3800101901001419010038B52D4814461D46F6
:104B480000F056FE18B190F90030312B3FD0294BB8
:104B58000021022C19603FD00024274801F0EEFD07
:104B68002046FFF733FF002504460DE04FF47A7026
:104B780005F0C6FF01F0B0FEA8B901354FF47A7010
:104B880005F0BEFF642D17D0013501F0A5FE002801
:104B9800ECD001F0ABFE4FF47A7005F0B1FF01F0F4
:104BA8009BFE0028E9D001F0A1FE01354FF47A7090
:104BB80005F0A6FF642DE7D1B4F1FF3F13D00F48ED
:104BC800214601F0BBFD0E4A0020146038BD09489B
:104BD8000122022C0260BFD168680021102206F071
:104BE80005F80446B9E7074801F0A8FD012038BDDB
:104BF80010250100E40000201C25010058240100B4
:104C08005400002040250100022A2DE9F0441446F2
:104C18001D4629DD00211022586805F081FF154B3B
:104C280000211F681022C719A86805F079FF3946C6
:104C380002468246002005F023F90AF1FF320646B3
:104C4800D21939460C48334601F078FD032C02D1BD
:104C58000020BDE8F084E8680021102205F060FF1C
:104C680006600020BDE8F08401F080FA0120BDE86C
:104C7800F08400BF082B0020F4250100012A08B5A4
:104C88000CDD58680021102205F04AFF014607484C
:104C98000160074801F052FD002008BD034B04489D
:104CA800196801F04BFD002008BD00BF082B00204B
:104CB8001C2601002DE9F04E012A84B014461D4639
:104CC8001FDD00211022586805F02AFF022C0190F0
:104CD8001AD000211022A86805F022FF032C824672
:104CE80016D000211022E86805F01AFF042C83462C
:104CF80000F0AE8028690021102205F011FF039012
:104D08000AE04FF02047019740F2000ACAF2F03A51
:104D18004FF0000BCDF80CB0012702974FF00009B7
:104D280001F0EEFD002840F08280039A0299131EDC
:104D380018BF01239142D4BF002303F00103002BC5
:104D48007CD1454A4548594601F0F8FC019A52453C
:104D58005ED2019BD44343F804BB04EB0A005345DD
:104D6800C0F380020BEB07010ED222B143F8041BFB
:104D7800C919534508D21A4642F8041BCE195E6079
:104D8800131DF1195345F6D3354801F0BFFC0199BD
:104D98005E46CB4303EB0A0C1CF0040F0C4614D000
:104DA80001990A685A4509D02E485B4601F0C6FCAD
:104DB80001F0A6FD00283AD109F1010901990C1D5D
:104DC800544538BF0BEB070625D225682146B54266
:104DD8002A463346234806D001F0B0FC01F090FD86
:104DE80028BB09F10109251DF61955452946334601
:104DF8001C4810D26468B442224606D001F09EFCDA
:104E080001F07EFD98B909F101092C1DF619DCE7BE
:104E1800134801F07BFC029ABBF1000FB4BFCBF141
:104E2800000B6FEA0B0B501C02907F4278E70A20B8
:104E380001F048FD012004B0BDE8F08E0A480139B0
:104E48004A4601F07BFCB9F1000018BF0120F2E7E7
:104E58000021039160E700BF882601006026010059
:104E68008C2601009826010034260100022A70B51C
:104E78001E462EDD0421186801F056F9051E2ADBAE
:104E880000211022706805F04BFE00211022044614
:104E9800B06805F045FE01281FD0042D2AD0022D48
:104EA80040D0002857D0461E224612F8011B06F0B3
:104EB80001053146002EF6D01DB10132711E63780E
:104EC800F1D0134613F801CB52785A1C0239EAD0B4
:104ED800F7E701F04BF9012070BD042D04D0022D35
:104EE80005D023782378FCE723682368FCE7238828
:104EF8002388FCE700282DD0431E224652F8041BC5
:104F080003F001051946002BF6D01DB10432013912
:104F18006368F1D0164656F8045B5268321D0239B0
:104F2800EAD0F7E7A8B1431E224632F8021B03F085
:104F380001051946002BF6D01DB1023201396388EC
:104F4800F1D0154635F802CB5288AA1C0239EAD0AE
:104F5800F7E7FEE7FEE7FEE7042A2DE9F8461D46D7
:104F680004D001F003F90120BDE8F886114618685D
:104F780001F0DAF8041E47DB00211022686805F00A
:104F8800CFFD264E002110228246A868376805F01A
:104F9800C7FD002181461022E868356805F0C0FD8C
:104FA800034600282DD010F0010F57444D4420D15E
:104FB800042C2FD0022C15BF3A783A882A702A8000
:104FC800013B3F192D1914E0022C0BBF38883A78A1
:104FD80028802A70013B1AD039192A19042C0DD0BF
:104FE800022C15BF0878088810701080013B0F1933
:104FF8001519042CE8D13A682A60EBE7385928518A
:10500800F4E7074801F082FB0120BDE8F88618465E
:10501800BDE8F8863A682A60D2E700BF082B00206E
:10502800CC2601002DE9F046042A83B01D4606D09F
:1050380001F09CF80126304603B0BDE8F086114621
:10504800186801F071F8041E68DB002110226868F6
:1050580005F066FD434E002110228246A868376895
:1050680005F05EFD002181461022E868356805F0EC
:1050780057FD8446002853D009EB0503002510F09E
:10508800010F0AEB070123D1042C42D0022C60D077
:105098000A781E78B24256D109191B190125042C29
:1050A80018D0022C26D00A781E78B2424BD101358E
:1050B800AC45284635D009191B19042C15D0022CEB
:1050C80022D00A781E78B2423DD1451C09191B1915
:1050D800042CE6D10A681E68B242E8D0224800963D
:1050E80001F02CFB0126214A23E00A681E68B2421F
:1050F800EBD0F3E70A881E88B242D8D01C48009645
:1051080001F01CFB01260FE00A881E88B242DCD0A1
:10511800F4E70A681E68B242BED0DFE701268AE7D4
:105128000546042C1AD00026124B134A022C18BF2D
:105138001A461248124B2946012D08BF034611484A
:1051480001F0FCFA77E71048009601F0F7FA01261B
:10515800EAE70A881E88B2429ED0CFE70026034AB3
:10516800E7E700BF082B0020E02601009C2701008C
:1051780018270100902701009827010088260100C0
:1051880064250100A4270100582701002DE9F044F7
:105198001446033A012A9A4604D900F0E7FF012091
:1051A800BDE8F0840421186800F0BEFF051E41DD4B
:1051B80000211022DAF8040005F0B2FC244B00218B
:1051C8001E6810228619DAF8080005F0A9FC042CDC
:1051D800074632D0002313F0010F17D1042D08BF62
:1051E800376005D0022D0BBF39463A463180327000
:1051F800EBB1013B7219042D15D0022D15BF3946AC
:105208003946117011805619013BE7E7042D08BF94
:10521800376005D0022D15BF39463A4631703280C5
:105228007619013BDAE77751013B5619D6E700209A
:10523800BDE8F0840120BDE8F084DAF80C00002114
:10524800102205F06DFC0028F1D0431EC3E700BF13
:10525800082B00202DE9F04E022B82B00C46DDF819
:1052680028A056D1384F12F001097D68BE6854D085
:10527800DFF8E8A00DF10409C6F1000B3348294610
:1052880001F05CFA042E2CD0022E0BBF30483148B6
:105298002988297801F052FA2F4803F09DFA03462D
:1052A800002828D0012803D19AF900202D2A22D0DD
:1052B80049461022294805F033FC0199514522D06E
:1052C800042E08BF286003D0022E0CBF2880287047
:1052D800002CD3D0AD191D48294601F02FFA042E11
:1052E800D2D11F48296801F029FA1B4803F074FA43
:1052F80003460028D6D1002CC0D0002B0CBF334663
:105308005B46ED18BAE7BE607D60002002B0BDE8DC
:10531800F08E00F02BFF0120F8E70421DAF80000F6
:1053280000F002FF061E0CDBDAF8040049461022E2
:1053380005F0F6FB3D68DFF824A045190DF10409D6
:105348009AE70120E2E700BF082B0020C8270100E8
:10535800D8270100E0270100E8270100742B00206E
:10536800D027010000B5944683B000930A466346EF
:105378000021FFF76FFF03B000BD00BF00B59446E2
:1053880083B000930A4663460121FFF763FF03B029
:1053980000BD00BF2DE9F04E214CDFF888A0012A9E
:1053A80084B091469B46E6682569DAF8007033DDDB
:1053B80011F00101039110D10421186800F0B4FE26
:1053C800051E27DB1022DBF80400039905F0A8FB73
:1053D80026688619B9F1020F14D1102090FBF5FC4C
:1053E8003146304607FB05662A463B46CDF800C0E5
:1053F80004F09AFDCAF800702561E660002004B048
:10540800BDE8F08EDBF808000399102205F088FB50
:105418000746E2E70120F2E700F0A8FE0120EEE7E8
:10542800082B0020E80000202DE9F044054688B04C
:1054380084480E4614461F4600F0DAF928B10021C8
:10544800102205F06DFB804B1860022C0FD0032C46
:105458006ED0012C1DD0304600F088FE6FF04F0052
:1054680002F064FE0124204608B0BDE8F08407A9D4
:105478001022786805F054FB7C6882462046FBF7CA
:1054880093F807992018884240F0BE806E4AC2F807
:1054980000A0502002F04AFE2846FCF7EFFE041E4A
:1054A8005ADB512002F042FE68490868002866D19C
:1054B800674A106800286ED1664991F900000028F3
:1054C80076D1654991F90030002B79D16349086894
:1054D800002840F08B80624A1068002842D1614B56
:1054E8001868002874D1604991F90000D0B9A4B1B6
:1054F800554D2146286809F0EFFF5C4800F078F91F
:1055080030B15B49FAF7CAFF0446002800F08280F0
:105518000024542002F00AFEA5E76FF0510002F0C3
:1055280005FEA0E7534800F083FB002CE0D1F4E728
:1055380000211022786805F0F3FA434B80221860A6
:10554800B9684D48FCF710FA502002F0EFFD2846E4
:10555800FCF794FE041EA4DA6FF0500002F0E6FD9A
:10556800012480E701AD2946FCF782FA2946434821
:1055780000F05EFB3B4B18680028B4D028E001AD72
:105588002946FCF775FA29463D4800F051FB304A98
:105598001068002890D001AD2946FCF769FA294621
:1055A800384800F045FB2B4991F90000002888D0C5
:1055B800354800F03DFB284991F90030002B85D093
:1055C800324800F035FB25490868002883D00DE0F3
:1055D80001AD2946FCF74CFA29462D4800F028FB76
:1055E800214991F90000002881D09BE701AD2946A7
:1055F800FCF73EFA2946274800F01AFB184A1068BB
:1056080000283FF46CAFADE71B4879688022FCF7AF
:10561800ABF93EE73A6829681F480192029401F005
:105628008DF8522002F082FD21460122304601AB5E
:10563800FEF716FC041EBFF66CAF6FF0520002F0C6
:1056480075FD10E70013010054000020240F00200E
:10565800200F0020CC270020EC270020F80E002087
:10566800100F0020A8270020AC2700207C22010072
:10567800DC17010044290100302800202818010007
:105688001418010020180100242901003029010004
:105698003C290100F81201004C29010001460420B0
:1056A800C2E600BF01460120BEE600BF0146032056
:1056B800BAE600BF01460020B6E600BF014B1868F5
:1056C800704700BFEC000020F8B504460D4600E026
:1056D80001342846277801F03BFF6E1C874205D12C
:1056E800237835463D2BF3D13046F8BD207818B1E4
:1056F8004FF0FF363046F8BD284601F029FF3D2817
:10570800F2D04FF0FF36F5E72DE9F84605460C468E
:1057180092464FF0000940F6FF77484601F018FF1F
:1057280000284DD019F0010F4E4614D0484601F01C
:105738000FFFA8B1B94543DC09F10106304601F075
:1057480007FF68B1BE4206F10106304638DC01F0B9
:10575800FFFE28B10136304601F0FAFE0028F1D1EB
:1057680049462846FFF7B0FFB0F100092CDB0025B9
:105778001AF0010F08D00125BAF1000F19D001F075
:10578800E7FE04F8010BA0B105EB090001356B1E1B
:105798009A450ED901F0DCFE014604F8011B05EB21
:1057A800090031B101F0D4FE013504F8010B0028DD
:1057B800EAD15545284605D100222270BDE8F88671
:1057C8004FF0FF30BDE8F88606F10109A5E700BFF4
:1057D80008B5054B0548196800F0B0FF01F02AFF2D
:1057E800003818BF012008BD28080020642A0100DD
:1057F8002DE9F0410646002740F6FF75384601F0CE
:10580800A7FE002823D017F0010F3C4610D03846D9
:1058180001F09EFE88B1AF4219DC7C1C08E0AC4266
:1058280004F10104204612DC01F092FE28B1013493
:10583800204601F08DFE0028F1D139463046FFF7A9
:1058480043FF002806DBBDE8F04101F075BE0020EB
:10585800BDE8F081671CD1E72DE9F04E4446236886
:1058680084B0002089469246019301F065FE074600
:10587800002800F08980DAF804603D213046FAF704
:1058880059FE40B13146844800F058FF01242046B3
:1058980004B0BDE8F08E814801684A1C02603B787C
:1058A80093B13D463C461BB114F8013F002BFBD198
:1058B800E91B3046FFF708FFB0F1000B08DA637800
:1058C800651C2BB12C46EEE71C463D464FF0FF3BCE
:1058D80030467349FAF7E2FD002840F0BF80B9F17D
:1058E800020F53DDDAF8081000F0E6FE00284BDB63
:1058F800BBF1000F12DB6B49DAF80400FAF7CEFDB2
:10590800014618B36378621C002B40F0B480AF42A4
:1059180028BF2B70C0F0218100246C70B9F1020FF0
:1059280040F3A580DAF80820002A00F0A0803B4662
:1059380013F8012B3C462AB962786AB30133013463
:10594800002AF9D0627801330134F9E70A22DAF83B
:10595800080005F0E5F8B0F5165F834600F03381DE
:10596800B0F5964F00F02F81B0F5164F00F02B815F
:10597800B0F5614F00F02781B0F5E13F00F02381D9
:105988000146494800F0DAFE012480E731464748DD
:1059980000F0D4FE01247AE73046A74238BF1C46FF
:1059A800FAF702FEA9F1030B851C0BF00101DAF8E6
:1059B80008000091FAF7F8FD013000EB050B03250C
:1059C800A945009B19DD43B1DAF80C00FAF7ECFDA4
:1059D80004250130A94583440FDD5AF82500FAF75C
:1059E800E3FD0135421C5AF825009344FAF7DCFD23
:1059F8000135431CA9459B44EFDC07F57E671C373E
:105A08003F1B5F45C0F2AB803078207028B116F894
:105A1800011F04F8011F0029F9D1022002280CBF38
:105A28004FF03D0C4FF0200C5AF82010002384F85A
:105A380000C0CA5C013304F8012F002AF9D10130F3
:105A48004845EBD1627001F09BFDDAF80400184973
:105A5800FAF724FD00282FD1002418E7304615490D
:105A6800FAF71CFD002840F08080012037E701F09C
:105A780087FD00240BE72B70537805F8013F2BB105
:105A8800E378013405F8013F002BF9D1E378002BC6
:105A98003FF442AF0134F5E7842A0100EC0000200E
:105AA800BC2A0100EC120100182B0100D42A0100C5
:105AB80064160100C42A0100DAF804004D49FAF717
:105AC800EDFC0346002859D1019CDAF80800636010
:105AD80000286AD003AC0A22214605F021F8039B6E
:105AE800C5B293F9002002B10133002B5ED01846ED
:105AF80021460A2205F014F8039BC0B293F900105E
:105B080040EA052501B10133002B50D018460A227E
:105B1800214605F005F8039B5FFA80FC93F9002005
:105B28004CEA052502B10133002B41D01846214625
:105B38000A2204F0F5FFC3B243EA05252B0643EA1F
:105B4800156005F47F42019C40EA022E05F47F05AA
:105B58004EEA15216160002499E6013DDCE63146F4
:105B6800254800F0EBFD012491E630462349FAF779
:105B780095FC00287FF4BCAE0230B0E6DAF80400E9
:105B88001F49FAF78BFC0446A0B1DAF804001D4956
:105B9800FAF784FC044600287FF45EAFDAF80810B0
:105BA80019488022FBF7E0FE71E605462D022D021A
:105BB8002D02C3E72146DAF80800102204F0B0FFEE
:105BC8001249086063E65946114800F0B7FD4CF2E7
:105BD800503004F095FF4346C3F808B0FDF760FC69
:105BE8004CF2503004F08CFF00F080FE0D28FBD101
:105BF80088E600BFF8120100E82A0100CC2A01005B
:105C0800001301000C13010030280020540000206C
:105C180074230100012A10B505DD084611461A460D
:105C2800BDE8104018E600F0A1FA012010BD00BF41
:105C380000B50C4A85B000230092019002910393AD
:105C480011B191F9000030B9002002216A46FFF72E
:105C580003FE05B000BD184603216A46FFF7FCFDA8
:105C6800F7E700BF3C2B01002DE9F044002588B080
:105C780007468DF81C500C4649B303AE284601F080
:105C880067FC28B3022C42D0284601F061FC01359C
:105C980003468DF80C004FF0010A284683B101F045
:105CA80057FC08A901EB0A020AF1010ABAF1100F20
:105CB800034602F8140C0FD001352846002BEED10C
:105CC800012C17DD00F01CFEF0B9002CD6D1002500
:105CD800284608B0BDE8F084012CC8BF4FF0000A80
:105CE800EADC304601934FF0000A00F00FFD013561
:105CF800019BE2E7BAF1000F10D10A2000F0E2FDA3
:105D080000F0FEFD0028E0D04FF0FF35E0E7384610
:105D18002946FFF7D9FC04EAE074B5E7304600F0FD
